:03000000020100FA
:100100001201460002010390019812014D22900154
:100110009C12014D229001A512014D229001AA12BC
:10012000014D229001AF12014D229001B412014DF8
:100130002290018E12014D229001BB12014D22909E
:1001400001C412014D229001CB12014D22E493FF14
:100150006006120187A380F5227F01120180227FB1
:10016000381201807F0F1201807F071201807F18F3
:100170001201807F01120180227982E320E7FA22B6
:1001800031797880EFF22231797981EFF3224D4194
:10019000494E204D454E55004D534700534554544C
:1001A000494E475300544553540053454E44005262
:1001B00045414400555054494D4500454449545F1C
:0F01C0004D53470042555A5A4552004C45440092
:00000001FF
