:03000000020100FA
:100100001201EB75300812010D000201091201E520
:10011000C3E5309400602194016024940160279429
:1001200001602A94016030940160369401603C942F
:1001300001604294016048221201C8120189221212
:1001400001C8120190221201C812019722120189DE
:100150001201D212019E221201891201D21201A5AE
:10016000221201901201D21201AC2212019012014E
:10017000D21201B3221201971201D21201BA221235
:1001800001971201D21201C1229002261201D92236
:1001900090022A1201D9229002331201D922900230
:1001A000381201D92290023D1201D9229002421246
:1001B00001D9229002491201D9229002521201D98A
:1001C000229002591201D92290021C1201D9120167
:1001D000D22290021A1201D922E493FF6006120281
:1001E00013A380F5227F0112020C227F3812020C29
:1001F0007F0F12020C7F0612020C7F1412020C7F7A
:100200000112020C227982E320E7FA22510578805C
:10021000EFF22251057981EFF3223E004D41494E24
:10022000204D454E55004D53470053455454494EBB
:10023000475300544553540053454E4400524541E2
:100240004400555054494D4500454449545F4D5371
:0D025000470042555A5A4552004C454400A3
:00000001FF
