:03000000020100FA
:10010000120147000201032290019912014E229030
:10011000019D12014E229001A612014E229001ABC8
:1001200012014E229001B012014E229001B512012F
:100130004E2290018F12014E229001BC12014E22DC
:100140009001C512014E229001CC12014E22E4937F
:10015000FF6006120188A380F5227F01120181222F
:100160007F381201817F0F1201817F071201817F89
:10017000181201817F01120181227982E320E7FABE
:1001800022317A7880EFF222317A7981EFF3224DB1
:1001900041494E204D454E55004D5347005345545F
:1001A00054494E475300544553540053454E440060
:1001B0005245414400555054494D45004544495429
:1001C0005F4D53470042555A5A4552004C45440032
:00000001FF
