:03000000020100FA
:03000B000200B040
:1000B000C0E0C0D0758CFCD56D03756D05E56D5441
:1000C000016004746780027468258AF58A5002050D
:0800D0008CD0D0D0E0D27F32C9
:10010000757A36757B3B757C17757104757205754C
:100110007309757405757503757602C27EC297758D
:100120006F03756E03756D057578E875790475A8AC
:1001300000758971758810D2A9D2AF7F017E0175D3
:100140007F00307FFDC27F1202AC120253BF08F263
:1001500012015580E6E57F6059B57E56E57D605811
:10016000D57D55E57FB40206D27ED297804AB40190
:100170000CC27EC2977578E8757904803B307E3872
:10018000B4040EE56F0303F56FB4C02C756F0380E4
:1001900027B40805120206801FB410051201B980A9
:1001A00017B42014E56F2323F56FB4C00B756F30BF
:1001B0008006757D07857F7E22E56FB40317157A6B
:1001C000E57A75F0C48485F07AE5F075F00A8485E7
:1001D000F071F57222B40C17157BE57B75F0C484C1
:1001E00085F07BE5F075F00A8485F073F5742215CF
:1001F0007CE57C75F0E88485F07CE5F075F00A8498
:1002000085F075F57622E56FB40317057AE57A7502
:10021000F03C8485F07AE5F075F00A8485F071F59C
:100220007222B40C17057BE57B75F03C8485F07B6E
:10023000E5F075F00A8485F073F57422057CE57CA1
:1002400075F0188485F07CE5F075F00A8485F0750A
:10025000F57622207E55D57852B297D5794D7578AE
:10026000E8757904057AE57A75F00A8485F071F508
:1002700072B40637757A00757200057BE57B75F000
:100280000A8485F073F574B40621757B00757400DB
:10029000057CE57C75F00A8485F075F576E57CB41F
:1002A0001809757C007575007576002290FF30EE98
:1002B000D296F0BF0704E57F8009EF2470F8E6903E
:1002C00002EA9390FF38F0207E04C2968009E56E22
:1002D000D5E004C2967403F56EE56F5E6002C296C7
:1002E000EE30B502427F23FE0F223F065B4F666D64
:0A02F0007D077F6F777C585E7971FF
:00000001FF
