:0400000002002B329D
:03000B0002040BE1
:0100130032BA
:01001B0032B2
:03002300020422B2
:10008400752F0175301775312D753205753304756B
:100094003403753502753601753700753A00753BC2
:0600A40003C20502002664
:050026001200AA80FE9B
:1000AA007590FF75B0FF75878075985075892175B1
:1000BA0088007524FC75237975217975227A758AE9
:1000CA0079758CFC758BFD758DFD752E0075253245
:1000DA0075260AD201C202C200C203C204D2BCD22D
:1000EA00A9D2ACD2AFD28CD28E12044D10000280AB
:1000FA000312027830020A300107C202C201120258
:10010A008D100402800312029710030280DED526A6
:10011A000E75260A20050630970312012EB2971291
:10012A0002A780C80531E53124C45019753100058C
:10013A0030E53024C4500E753000052FE52F24E831
:10014A005003752F0075F00AE53184E5F0F5327534
:10015A00F00AE53184F53375F00AE53084E5F0F507
:10016A003475F00AE53084F53575F00AE52F84E533
:10017A00F0F53675F00AE52F84F537E53120E0040D
:10018A00E53270048521232285222322E4B53A022E
:10019A00800E7401B53A0280257402B53A5B803C40
:1001AA000531E53124C4500375310075F00AE53193
:1001BA0084E5F0F53275F00AE53184F5332205302D
:1001CA00E53024C4500375300075F00AE53084E543
:1001DA00F0F53475F00AE53084F53522052FE52F60
:1001EA0024E85003752F0075F00AE52F84E5F0F531
:1001FA003675F00AE52F84F53722E4B53A02800E07
:10020A007401B53A0280257402B53A5B803CE53147
:10021A0060041531800375313B75F00AE53184E5D8
:10022A00F0F53275F00AE53184F53322E5306004E1
:10023A001530800375303B75F00AE53084E5F0F53A
:10024A003475F00AE53084F53522E52F6004152F60
:10025A008003752F1775F00AE52F84E5F0F53675DA
:10026A00F00AE52F84F53722858227D20222AA993D
:10027A00BA61004009BA7B005004EA24E0FA8A8293
:10028A00020272852782120430852799221204C538
:10029A00E5256003152522D2037525322290FF2118
:1002AA00E0F4FABA01028023BA02028022BA0402F6
:1002BA008021BA08028020BA1002801FBA20028068
:1002CA001EBA4002801DBA8022801C7A30801E7AB3
:1002DA0031801A7A3280167A3380127A34800E7A12
:1002EA0035800A7A3680067A3780027A0090FF22B1
:1002FA00E0F4FBBB01028023BB02028022BB0402A2
:10030A008021BB08028020BB1002801FBB20028014
:10031A001EBB4002801DBB8022801C7B38801E7B56
:10032A0039801A7B1380167B0480127B05800E7B32
:10033A0018800A7B1B80067B0D80027B00EAB528A9
:10034A0006EBB5290280088A288B29752A0D22EB2B
:10035A004A7003D29522EA70028B0275F00DE52AE3
:10036A0084ABF0BB00028003020408BA04028036A0
:10037A00BA0502805DBA0D02800FBA13028013BA61
:10038A0018028032BA1B6B8004C295806A12044D2F
:10039A008065C37480852EF063F08095F0505815FF
:1003AA002E1204758051C3E52E6480949850480536
:1003BA002E12047E80417B00BB0E00503AC3E52E0C
:1003CA00648094985031C00312047ED0030B052E2A
:1003DA0080E67B00BB0E00501EC37480852EF0633E
:1003EA00F08095F05011C003120475D0030B152E3E
:1003FA0080E28A82120272E52A7003752A05152A9A
:10040A0022C0E0C0D075D000E523258AF58A85246C
:10041A008CD204D0D0D0E0321099028004D201806C
:10042A0004C298D20032AA82C002120445D00278CD
:10043A0081EAF222AA827880EAF2227882E2FA201B
:10044A00E7F92212044575820112043E1204457529
:10045A00820612043E12044575820D12043E1204ED
:10046A004575823812043E752E00221204457582A3
:10047A001C02043E12044575821802043EE582FA03
:10048A00C4540FFBBB0A00500E74302BF582C00215
:10049A00120430D002800C74102BF582C0021204B0
:1004AA0030D00253020FBA0A00500874302AF5827B
:1004BA0002043074102AF5820204307A387BFFD2A3
:1004CA009690FF30E539F0E538B4060474018001EE
:1004DA00E4FC603330050DC3E5269404E433C454C8
:1004EA00F0FD8044E53124E15008743CC39531FDA8
:1004FA008002AD3174105D25E0FE740F5D4EF5F09B
:10050A00741045F0FD8021E5382432F8E6FE9006A5
:10051A001C93FD20051230970F7402B5380280052E
:10052A007404B538034305808A828B83EDF0300565
:10053A0007E53B6003EC6004C2968024E53A253A5D
:10054A00FAB5380280137B000ABA00010BAD387E77
:10055A0000EDB5020BEEB50307C3E52694049296A7
:10056A0030B50BE52B6003752C00E539422BEC7096
:10057A000302060F753800753901E52CB52B028088
:10058A0006752D650205FF152D75F064E52D84AA03
:10059A00F0BA005A2005097402B52B52D205804ED2
:1005AA007401B52B02801C7404B52B02801C7408DC
:1005BA00B52B0280227410B52B0280207420B52B33
:1005CA002D801EC20575260A8024E53A6004153A74
:1005DA00801C753A0280171201968012120204805A
:1005EA000D74FE253A4004053A8003753A00E52D5C
:1005FA007003752D28852B2C752B00E53B70037530
:0E060A003B03153B220538E5392539F5392229
:0A061C003F065B4F666D7D077F6FA0
:06005A00E478FFF6D8FD7A
:100038007900E94400601B7A00900626780075A0D4
:1000480000E493F2A308B8000205A0D9F4DAF27527
:02005800A0FF07
:100060007800E84400600A790075A000E4F309D83C
:10007000FC7800E84400600C7900900000E4F0A3F4
:04008000D8FCD9FAD5
:0D002B0075813B120618E582600302002675
:0406180075820022C5
:00000001FF
