:03000000020100FA
:10000B00C0E0C0D07466258AF58A758CFC50020559
:09001B008CD27FD0D0D0E032324B
:10010000D27D75630075760075650075660075674C
:1001100000756800757917757A3B757B3812017523
:10012000757700757801758911757EE8757F04759E
:100130008A66758CFCD2A9D2AF307FFDC27F1201D6
:100140009F307D2CD57EF2B297D57FED757EE87518
:100150007F04057BE57BB43C17757B00057AE57A67
:10016000B43C0D757A000579E579B418037579000A
:1001700012017580C4C0E0C0F0E57B75F00A84858B
:10018000F070F571E57A75F00A8485F072F573E523
:100190007975F00A8485F074F575D0F0D0E022D23C
:1001A0007CE577C39406600BE577C313C395636062
:1001B00002C27CE577B40604E56580122470F8E697
:1001C0009002A493B872024480B874024480D2961C
:1001D00090FF38F00577E57890FF30F0207D10A88B
:1001E0007608B8030278008876207C03B80002C243
:1001F0009630B502426925E0F578B480277577001E
:10020000757801E568C39567600375646085676804
:10021000856667856566856965756900E56560045D
:100220001202252222B5667BB56778C395687006F1
:10023000D56470756430E565B40208C27DC297224A
:10024000207D60B40109757EE8757F04D27D22B4FB
:10025000200A0563A863B80303756300B4040A1594
:1002600063A863B8FF03756302B4081A747BC3956F
:1002700063F806E563B40207E6B41827760022E6C1
:10028000B43C20760022B4101A747BC39563F81630
:10029000E563B40207E6B4FF0A761722E6B4FF036B
:1002A000763B22223F065B4F666D7D077F6F777C32
:0402B000395E7971C9
:00000001FF
