:03000000020100FA
:10002300209911E53005312531F9E599F599F7C2A4
:0900330098D20032C299D20132C8
:10010000D2ACD2AF753200753000753100C200C27A
:100110000175300075985053892F438920758BFDE8
:10012000758DFD53877FC28FD28E30000DE531C2B1
:10013000D79408400312014EC2003001EDC201E520
:100140003060E724321530F9E7F59902012AB297B9
:10015000743027F9E79430FE74302407F9E79430BF
:100160002E243012016A75310022FE7432053025CA
:1001700030F9EEF709053077300905307730D201D4
:0C01800075310022574954414A0D0A0015
:00000001FF
