:03000000020100FA
:06000B00758CF0D27F327B
:1001000075791775783B75772DE57775F00A8485D5
:10011000F07AF57BE57875F00A8485F07CF57DE56D
:100120007975F00A8485F07EF57F7F017E7A787A92
:1001300075A800758CFE758CF0758970D28CD2A96B
:10014000D2AF7B087C08757600757400C275307F6D
:10015000FDC27F51302075F6DBF4DCF27B087C08B1
:1001600031ED80EAE576B5740122F57420E11620C0
:10017000E01930750D20E31720E44B20E53A20E22A
:100180003E22510E22D2757A0380F7C27580F3BAEF
:10019000010A0577A977B93C1D757700BA020A05EF
:1001A00078A978B93C10757800BA030A0579A9795D
:1001B000B9180375790080CA0ABA04011A80C31AF3
:1001C000BA00010A80BCBA010A1577A977B9FF1AEB
:1001D00075773BBA020A1578A978B9FF0D75783B97
:1001E0001579A979B9FF037579170201820577E5B9
:1001F00077B43C1A7577000578E578B43C107578CB
:10020000000579E579B41806757900510E22E57775
:1002100075F00A8485F07AF57BE57875F00A8485B7
:10022000F07CF57DE57975F00A8485F07EF57F2216
:10023000900263E60893D29690FF38F090FF30EF7B
:10024000F0C296A2B55002427623FFDDFEEF30E702
:10025000117F013164757600DDFE787A0EBE800272
:100260007E7A223F065B4F666D7D077F6F777C58F5
:030270005E797143
:00000001FF
