:03000000020100FA
:06000B00758CF0D27F327B
:10010000757A001201A512017F75A800758CF07533
:100110008970D28CD2A9D2AF7B087C08757D00D2C1
:100120007B307FFDC27F12013F12017F307BF2DB0B
:10013000F0DCEE7B087C08057A1201BE020121D2B8
:10014000967F01757C00EF90FF30F0A2B55002421F
:100150007C23FF30E6F0E57CB57D0122F57D20E0D3
:100160000720E30920E40E22B27BD29722057A12FF
:1001700001BED29522157A1201BEC295C29722D233
:10018000967480AF36DF0302018D2380F890FF3034
:10019000F0742F253614F8E690FF38F0C296D53665
:1001A0000375360722753607752F1075303F753188
:1001B0003F75323F75333F75343F75353F22E57AE1
:1001C00075F00A84FD9001E3E5F093F530ED75F0EC
:1001D0000A84FD9001E3E5F093F5319001E3ED939E
:0D01E000F532223F065B4F666D7D077F6F95
:00000001FF
